:020000040000FA
:100000000C946E000C9496000C9496000C94960040
:100010000C9496000C9496000C9496000C94960008
:100020000C9496000C9496000C9496000C94740812
:100030000C9496000C9496000C9496000C949600E8
:100040000C94D2070C9496000C9442080C941C0853
:100050000C9496000C9496000C9496000C949600C8
:100060000C9430090C94960032303A35333A3131E1
:10007000004D61792032352032303233001F1C1F91
:100080001E1F1E1F1F1E1F1E000000080002010071
:100090000003040700000000000000000000000052
:1000A000250028002B0000000000240027002A0063
:1000B000040404040404040402020202020203030E
:1000C0000303030301020408102040800102040816
:1000D00010200102040810204F0AA51011241FBE91
:1000E000CFEFD8E0DEBFCDBF11E0A0E0B1E0ECE49F
:1000F000F7E202C005900D92A83AB107D9F723E0C4
:10010000A8EAB1E001C01D92AD36B207E1F710E0F8
:10011000CDE6D0E004C02197FE010E94A111CC36AB
:10012000D107C9F70E94FF0A0C9499130C940000A0
:1001300090E0FC01EC53FF4F249180559F4FFC0150
:100140008491882399F090E0880F991FFC01EA556B
:10015000FF4FA591B491FC01E456FF4F8591949116
:100160008FB7F894EC91E22BEC938FBF08958F92A8
:100170009F92AF92BF92FF920F931F93CF93DF9303
:10018000F09048032BE02F1508F44CC020914A034F
:1001900008E512E0021B110927FD1395000F111F3E
:1001A000000F111F20914903C8E8D0E0C21BD109FC
:1001B00027FDD395CC0FDD1FCC0FDD1F4E010D2E7B
:1001C000000CAA08BB089801012E000C440B550B2B
:1001D000281939094A095B09DC010E94111124EB35
:1001E00030E040E050E00E94E710820E931EA41E13
:1001F000B51E8C169D062CF0E801801691060CF4B5
:10020000E4012297CC0FDD1F2FB7F8948F2D90E0DB
:10021000FC01EE0FFF1FE80FF91FED5DFC4FD283CD
:10022000C1832FBFDF91CF911F910F91FF90BF909E
:10023000AF909F908F90089590E0FC01E857FF4F9A
:100240002491FC01EC53FF4F3491FC01E055FF4F2A
:10025000E491EE23C9F0222339F0233001F1A8F410
:10026000213019F1223029F1F0E0EE0FFF1FE456A2
:10027000FF4FA591B4918FB7F894EC91611126C00E
:1002800030953E233C938FBF08952730A9F0283046
:10029000C9F0243049F7809180008F7D03C08091A0
:1002A00080008F7780938000DFCF84B58F7784BD07
:1002B000DBCF84B58F7DFBCF8091B0008F778093AB
:1002C000B000D2CF8091B0008F7DF9CF3E2BDACF36
:1002D0003FB7F8948091260290912702A0912802BE
:1002E000B091290226B5A89B05C02F3F19F00196B1
:1002F000A11DB11D3FBFBA2FA92F982F8827BC0180
:10030000CD01620F711D811D911D42E0660F771FA7
:10031000881F991F4A95D1F708958F929F92AF92A7
:10032000BF92CF92DF92EF92FF924B015C010E944D
:1003300068016B017C010E9468016C197D098E09BE
:100340009F09683E734081059105A8F321E0821A58
:100350009108A108B10888EEC80E83E0D81EE11C00
:10036000F11C81149104A104B10429F7FF90EF90CE
:10037000DF90CF90BF90AF909F908F900895089599
:100380000895AF92BF92CF92DF92EF92FF920F93B8
:100390001F93CF93DF936C017B018B01040F151F1B
:1003A000EB015E01AE18BF08C017D10759F0699183
:1003B000D601ED91FC910190F081E02DC6010995E7
:1003C000892B79F7C501DF91CF911F910F91FF9094
:1003D000EF90DF90CF90BF90AF900895FC01538DC8
:1003E000448D252F30E0842F90E0821B930B54170F
:1003F00010F0CF96089501970895FC01918D828D9C
:10040000981761F0A28DAE0FBF2FB11D5D968C9134
:10041000928D9F5F9F73928F90E008958FEF9FEF73
:100420000895FC01918D828D981731F0828DE80F2F
:10043000F11D858D90E008958FEF9FEF0895FC01E9
:10044000918D228D892F90E0805C9F4F821B9109B6
:100450008F73992708958AE792E00E941F0221E096
:10046000892B09F420E0822F089580E090E0892B09
:1004700029F00E942B0281110C9400000895FC01C8
:10048000A48DA80FB92FB11DA35ABF4F2C91848DF5
:1004900090E001968F739927848FA689B7892C9352
:1004A000A089B1898C91837080648C93938D848DA5
:1004B000981306C00288F389E02D80818F7D8083A8
:1004C0000895EF92FF920F931F93CF93DF93EC0168
:1004D00081E0888F9B8D8C8D98131AC0E889F989EB
:1004E000808185FF15C09FB7F894EE89FF896083EE
:1004F000E889F98980818370806480839FBF81E06F
:1005000090E0DF91CF911F910F91FF90EF900895B0
:10051000F62E0B8D10E00F5F1F4F0F731127E02E8B
:100520008C8D8E110CC00FB607FCFACFE889F989C3
:10053000808185FFF5CFCE010E943F02F1CFEB8D88
:10054000EC0FFD2FF11DE35AFF4FF0829FB7F89497
:100550000B8FEA89FB8980818062CFCFCF93DF93B5
:10056000EC01888D8823B9F0AA89BB89E889F989CB
:100570008C9185FD03C0808186FD0DC00FB607FC00
:10058000F7CF8C9185FFF2CF808185FFEDCFCE0133
:100590000E943F02E9CFDF91CF9108950895FC01B9
:1005A000908190539A3008F090E0818180532AE046
:1005B000929F800D112408952091C901260F3327A1
:1005C000331F21323105ECF420915002FC0190E000
:1005D00080E0243069F082E00895A091C901219162
:1005E000AC0147555E4FA40FB52FB11D2C9301965A
:1005F000861798F38091C901680F6093C90180E064
:10060000089581E008951092500281E080934F0296
:1006100010922A0261E082E10E941C0161E083E104
:100620000E941C01E9EBF0E080818E7F8083808155
:100630008D7F808388E48093B80085E48093BC003C
:100640000895CF93DF9391E09093A8018823B9F0A8
:10065000C091B800D091BA008091BC008A7B809391
:10066000BC0060E082E10E941C0160E083E10E9426
:100670001C010E940303D093BA00C093B800DF911D
:10068000CF9108958F929F92AF92BF92CF92DF92B7
:10069000EF92FF920F931F93CF93DF93D091790244
:1006A000D13208F0D7C0182FC09178020E9468019B
:1006B0006B017C018091500281116BC082E08093BC
:1006C000500210934F028FEF80934E0210924D0212
:1006D000D0934C02A8E5B2E0ECE2F2E080E0D8135F
:1006E00091C010922B0280912B02CC0FC82BC0938B
:1006F0002B0280912A02813009F088C010922A02D0
:100700000E9468016B017C0180912B028093BB00E9
:100710008091520290915302A0915402B0915502DF
:10072000892B8A2B8B2BA1F00E9468010091520229
:100730001091530220915402309155026C197D0999
:100740008E099F09061717072807390708F442C0C2
:100750008091BC0083FDD8CF85EC8093BC000E94C3
:1007600068016B017C0180915002823009F450C015
:1007700080914E028F3F09F46FC080914E0280320B
:1007800009F46CC080914E02803309F469C084E0A2
:1007900026C08091520290915302A0915402B091D0
:1007A0005502892B8A2B8B2B09F484CF0E94680178
:1007B0008090520290905302A0905402B090550243
:1007C0006C197D098E099F0986169706A806B90639
:1007D00008F070CF809151020E94210385E01092B1
:1007E00057021092790210925602DF91CF911F9119
:1007F0000F91FF90EF90DF90CF90BF90AF909F90C0
:100800008F9008959D9191938F5F69CF85EEA5CFCD
:100810008091520290915302A0915402B0915502DE
:10082000892B8A2B8B2B09F49ECF0E9468010091A3
:1008300052021091530220915402309155026C19CA
:100840007D098E099F09061717072807390708F041
:100850008ACFC0CF81E0C3CF80E0C1CF82E0BFCFDD
:1008600083E0BDCF1F93CF93DF93EA01122FDC010A
:1008700011968D919C91DC01ED91FC910280F381A8
:10088000E02D0995C817D90729F4812F0E9442034A
:1008900091E0811190E0892FDF91CF911F91089510
:1008A000CF93DF93EC018B818823A1F0888191E0C5
:1008B0009093560280937802109257021092790218
:1008C00081E00E94420391E0811190E0892FDF9145
:1008D000CF9108951092F2011092F10110925702F7
:1008E000109279020E9403038FEB91E09093F00144
:1008F0008093EF0180EC91E09093EE018093ED0105
:1009000081E08B83CE010E945004982F8111CECFBD
:10091000DDCF0895E091F2018091F101E81730F404
:10092000F0E0ED50FE4F808190E008958FEF9FEF53
:1009300008959091F2018091F1012FEF3FEF981708
:1009400048F4E92FF0E0ED50FE4F208130E09F5F4A
:100950009093F201C90108958091F1019091F20103
:10096000891B990B0895CF92DF92EF92FF920F931C
:100970001F93CF93DF937C01CB018A012091560214
:10098000222389F0EB016B01C40ED51ECC15DD05C9
:1009900069F06991D701ED91FC910190F081E02D12
:1009A000C7010995F3CF642F0E94DC02C801DF91D3
:1009B000CF911F910F91FF90EF90DF90CF9008950E
:1009C000CF93DF931F92CDB7DEB769832091560294
:1009D0002223F9F020917902203258F021E030E012
:1009E000FC013383228390E080E00F90DF91CF9170
:1009F000089580915702E82FF0E0E85AFD4F998161
:100A000090838F5F809357028093790281E090E01A
:100A1000ECCF61E0CE0101960E94DC02F7CF90E0BE
:100A200080E00895CF93DF93EC0160E08E810E9417
:100A30001C0161E08E810E941C0160E08E810E9499
:100A40001C018BE891E00197F1F7DF91CF910895B8
:100A5000CF92DF92EF92FF920F931F93CF93DF938A
:100A60006C017C0187E0E80EF11CD0E0C0E0062FAD
:100A700010E0B8010C2E02C0759567950A94E2F754
:100A80006170F70181917F010E941C012196C430A1
:100A9000D10579F7C601DF91CF911F910F91FF909A
:100AA000EF90DF90CF900C941205CF92DF92EF92EF
:100AB000FF920F931F93CF93DF93EC01F62E642FD9
:100AC0008C810E941C018D818F3F19F060E00E9493
:100AD0001C010F2D10E08F8584FF25C06E0187E07B
:100AE000C80ED11CF12CE12CB8010E2C02C075955A
:100AF00067950A94E2F76170F60181916F010E9497
:100B00001C01FFEFEF1AFF0A88E0E816F10461F715
:100B1000CE01DF91CF911F910F91FF90EF90DF9069
:100B2000CF900C941205B80184E0759567958A956D
:100B3000E1F7CE010E9428056F2DCE01DF91CF9104
:100B40001F910F91FF90EF90DF90CF900C942805AC
:100B500040E0682F8BE493E00C94550581E00E94FF
:100B6000A8058BE39FE10197F1F70895CF93DF93F9
:100B7000823029F490915A03986090935A0380939D
:100B80005E0310925F0380E48093600380E18093B2
:100B9000610380E58093620380914F030E94980077
:100BA000809150038F3F11F00E9498008091510373
:100BB0000E949800CBE4D3E09E012B5433408091F7
:100BC0005A0384FD0AC084E090E021962817390773
:100BD0003CF48E810E949800EFCF88E090E0F5CF42
:100BE0008BE39DE00197F1F760E080914F030E9455
:100BF0001C0160E0809151030E941C018091500310
:100C00008F3F19F060E00E941C0180915A0384FD1F
:100C100034C063E08BE493E00E942805CBE4D6E483
:100C2000CE010197F1F763E08BE493E00E94280581
:100C30002197F1F763E08BE493E00E94280583E5B8
:100C400092E00197F1F762E08BE493E00E942805BF
:100C500080915A0380620E94A80584E080935B0320
:100C60008CE00E94A8050E94AE0582E080935C03A0
:100C700086E0DF91CF910C94A80580620E94A805C0
:100C80008BE496E40197F1F780915A0380620E9409
:100C9000A80583E592E00197F1F780915A038062FD
:100CA0000E94A805D5CF90915E03691710F06FEFF1
:100CB000690FE62FF0E0E55BFC4F9489890F8068AF
:100CC0000C94A80541E00E94550581E090E008954C
:100CD000FC0101900020E9F73197AF01481B590B47
:100CE000BC018BE493E00C94C10142E050E06AE85F
:100CF00071E08AE792E00C94C101CF93DF93FC018D
:100D000044815581608171818AE792E00E94C1012E
:100D1000EC010E9475068C0F9D1FDF91CF91089505
:100D2000CF93DF93EC0188819981009711F00E94A5
:100D30004312198218821D821C821B821A82DF9143
:100D4000CF910895FC0180819181009711F00C945E
:100D5000431208950F931F93CF93DF93EC01888183
:100D60009981009759F02A813B812617370730F087
:100D700081E0DF91CF911F910F9108958B016F5FFB
:100D80007F4F0E94CC12009759F0998388831B8370
:100D90000A832C813D81232B59F7FC011082E8CF77
:100DA00080E0E7CFEF92FF920F931F93CF93DF93F3
:100DB0006115710541F480E0DF91CF911F910F9192
:100DC000FF90EF90089541155105B1F07B01EC01C2
:100DD0000C811D81040F151FB8010E94AA068823EB
:100DE00051F3288139818C819D81B701820F931F36
:100DF0000E9492131D830C8381E0DECFCF93DF939B
:100E0000EC01FB0101900020E9F73197AF01461B8F
:100E1000570B0E94D206811103C0CE010E9490069A
:100E2000CE01DF91CF910895CF93DF93EC01FB01C9
:100E300044815581608171810E94D206811103C075
:100E4000CE010E949006CE01DF91CF910895EF92DE
:100E5000FF920F931F93CF93DF93EC017B018A01E5
:100E6000BA010E94AA0681110BC0CE010E94900611
:100E7000CE01DF91CF911F910F91FF90EF900895D8
:100E80001D830C83B701888199810E949213F0CF52
:100E9000EF92FF920F931F93CF93DF93CDB7DEB7FF
:100EA00062970FB6F894DEBF0FBECDBF8C01CB01A9
:100EB000F8011182108213821282158214824AE094
:100EC0009E012F5F3F4F7901B9010E94B210F701D7
:100ED00001900020E9F73197AF014E195F09B70182
:100EE000C8010E94270762960FB6F894DEBF0FBEB6
:100EF000CDBFDF91CF911F910F91FF90EF9008959B
:100F0000FB01DC0111961C921E9213961C921E92FC
:100F1000129715961C921E9214978617970749F000
:100F2000608171816115710521F0448155810C94B6
:100F30002707089585ED8093BC008091520290911F
:100F40005302A0915402B09155020796A11DB11D04
:100F500023E0B695A795979587952A95D1F7209187
:100F6000BC0024FD03C0109250020895409152022B
:100F7000509153026091540270915502452B462BBB
:100F8000472B69F30097A105B10541F02AE22A95A4
:100F9000F1F700C00197A109B109E1CF8091510299
:100FA0000C9421031F920F920FB60F9211242F93CE
:100FB0003F938F939F93AF93BF9380912202909121
:100FC0002302A0912402B09125023091210223E056
:100FD000230F2D3758F50196A11DB11D2093210235
:100FE0008093220290932302A0932402B0932502BF
:100FF0008091260290912702A0912802B0912902A7
:101000000196A11DB11D8093260290932702A09303
:101010002802B0932902BF91AF919F918F913F9188
:101020002F910F900FBE0F901F90189526E8230F59
:101030000296A11DB11DD2CF1F920F920FB60F9233
:1010400011242F933F934F935F936F937F938F93CD
:101050009F93AF93BF93EF93FF938AE792E00E9431
:101060003F02FF91EF91BF91AF919F918F917F913F
:101070006F915F914F913F912F910F900FBE0F9005
:101080001F9018951F920F920FB60F9211242F9355
:101090008F939F93EF93FF93E0918A02F0918B02DD
:1010A0008081E0919002F091910282FD1BC09081BD
:1010B000809193028F5F8F7320919402821741F089
:1010C000E0919302F0E0E658FD4F958F80939302F4
:1010D000FF91EF919F918F912F910F900FBE0F90E5
:1010E0001F9018958081F4CF1F920F920FB60F9228
:1010F00011242F933F934F935F936F937F938F931D
:101100009F93AF93BF93CF93DF93EF93FF93809120
:10111000EC01C0914703D0E087FF24C01092850006
:10112000109284008091EC018F5F8093EC0180919C
:10113000EC01082E000C990B8C179D0724F480916C
:10114000EC018C30C4F1809184009091850004966C
:1011500080349C4908F47AC0809184009091850085
:10116000049676C08091EC01082E000C990B8C1728
:101170009D07C4F6E091EC018E2FEE0F990BFC0158
:10118000EE0FFF1FE80FF91FED5DFC4F808186FF1A
:10119000C9CFE091EC018E2FEE0F990BFC01EE0F01
:1011A000FF1FE80FF91FED5DFC4F808160E08F733A
:1011B0000E941C01B7CF2091840030918500E091FE
:1011C000EC018E2FEE0F990BFC01EE0FFF1FE80FC5
:1011D000F91FED5DFC4F81819281820F931F9093E7
:1011E000890080938800E091EC018E2FEE0F990B1F
:1011F000FC01EE0FFF1FE80FF91FED5DFC4F808132
:1012000086FF11C0E091EC018E2FEE0F990BFC01CF
:10121000EE0FFF1FE80FF91FED5DFC4F808161E0CD
:101220008F730E941C01FF91EF91DF91CF91BF91CD
:10123000AF919F918F917F916F915F914F913F916E
:101240002F910F900FBE0F901F90189580E49CE98E
:1012500090938900809388008FEF8093EC01E3CF17
:101260001F920F920FB60F9211242F933F934F931B
:101270005F936F937F938F939F93AF93BF93EF93FE
:10128000FF938091B900887F803609F44AC0F0F559
:10129000883209F4A7C018F5803109F49BC0B8F46E
:1012A000882309F4F9C0883009F494C0FF91EF91C4
:1012B000BF91AF919F918F917F916F915F914F916E
:1012C0003F912F910F900FBE0F901F90189588316E
:1012D00009F488C0803251F780934E0214C08034E4
:1012E00009F49DC040F48033B9F38833F9F6809354
:1012F0004E0285ECB0C0803509F485C0883509F40C
:1013000096C0883499F60E949A07D0CF883909F49C
:101310008CC038F5883729F050F4883611F08037C2
:1013200029F683E0809350021092EB0157C0883871
:1013300009F47BC0803919F0803809F0B7CF80916B
:10134000EB01803208F071C0E091EB0181E08E0F7B
:101350008093EB018091BB00F0E0E553FE4F80836A
:101360003DC0803B39F0E0F4803A09F479C0883A16
:1013700009F09CCF84E0809350021092CA01109231
:10138000C901E091EF01F091F00109958091C90147
:1013900081110FC081E08093C9011092A90109C099
:1013A000803C09F4A6CF883C09F4A3CF883B09F020
:1013B0007DCFE091CA0181E08E0F8093CA01F0E0F9
:1013C000E755FE4F80818093BB009091CA018091C8
:1013D000C90129C080912B028093BB0085EC8093CA
:1013E000BC0064CF90914D0280914C02981758F543
:1013F000E0914D0281E08E0F80934D02F0E0E45DBC
:10140000FD4F8081E9CFE0914D0281E08E0F809306
:101410004D028091BB00F0E0E45DFD4F8083909130
:101420004D0280914C029817C8F285E8D8CFE09120
:101430004D0281E08E0F80934D028091BB00F0E061
:10144000E45DFD4F808380914F0281115CCF81E08C
:1014500080932A0284EA8093BC001092500226CF27
:1014600085EC8093BC00109250028091EB01803299
:1014700030F4E091EB01F0E0E553FE4F1082609113
:10148000EB0170E0E091ED01F091EE018BEC91E069
:1014900009951092EB010ACF10924E0234CFCF93F0
:1014A00010927D0210927C0288EE93E0A0E0B0E002
:1014B00080937E0290937F02A0938002B09381027A
:1014C0002EE531E030937B0220937A0225EC30E068
:1014D000309387022093860224EC30E03093890217
:1014E0002093880220EC30E030938B0220938A0214
:1014F00021EC30E030938D0220938C0222EC30E01E
:1015000030938F0220938E0226EC30E030939102CC
:1015100020939002109293021092940210929502DE
:101520001092960210921A031092190380931B03D3
:1015300090931C03A0931D03B0931E0380E791E0DA
:10154000909318038093170310926403109263031F
:10155000109266031092650310926803109267035D
:1015600050E040E06CE871E083E693E00E942707DA
:1015700010924E0310924D0382E891E090934C0339
:1015800080934B0387E080934F03CFEFC0935003CA
:1015900086E08093510385E08093520384E080933A
:1015A000530383E08093540382E0809355031092A9
:1015B0005603109257031092580310925903109239
:1015C0005A0381E00E94B605809147038C30A0F455
:1015D00091E0980F909347038093480390E0FC01BB
:1015E000EE0FFF1FE80FF91FED5DFC4F88EB9BE04E
:1015F00092838183CF910895C0934803FBCFCF930B
:10160000DF93CDB7DEB76D970FB6F894DEBF0FBE90
:10161000CDBF789484B5826084BD84B5816084BD7B
:1016200085B5826085BD85B5816085BD80916E0080
:10163000816080936E0010928100809181008260B1
:1016400080938100809181008160809381008091EE
:1016500080008160809380008091B10084608093DD
:10166000B1008091B00081608093B00080917A00D9
:10167000846080937A0080917A00826080937A00FF
:1016800080917A00816080937A0080917A008068EE
:1016900080937A001092C100E0918A02F0918B024F
:1016A00082E08083E0918602F09187021082E091CF
:1016B0008802F09189028FEC808310929202E0916F
:1016C0008E02F0918F0286E08083E0918C02F0918F
:1016D0008D02808180618083E0918C02F0918D0287
:1016E000808188608083E0918C02F0918D028081FE
:1016F00080688083E0918C02F0918D0280818F7DE3
:10170000808382E00E94B605809148038C3008F007
:1017100050C089E00E94980080914803282F30E053
:10172000F901EE0FFF1FE20FF31FED5DFC4F9081FB
:10173000907C996090831092490310924A032CE0A8
:10174000622F0E948111829FB001112430E020E0BD
:10175000AB01420F531FFA01EE0FFF1FE40FF51FFD
:10176000ED5DFC4F908196FD16C02F5F3F4F2C30F2
:10177000310571F781110FC01092800082E08093D3
:1017800081001092850010928400B19A80916F00C0
:10179000826080936F00E09148038E2F90E0FC01FF
:1017A000EE0FFF1FE80FF91FED5DFC4F8081806495
:1017B000808390E080E00E94B70080911F029091AA
:1017C0002002009711F00E94431286E090E00E94F0
:1017D000A7118C0188E6D8018C9387E193E01296DB
:1017E0009C938E93119713961C92139780E290E02E
:1017F00015969C938E9314971093200200931F02CA
:101800001092F2011092F101109257021092790297
:101810000E9403038FEB91E09093F0018093EF011E
:1018200080EC91E09093EE018093ED0181E0F8016E
:101830008383C8010E9450044BE050E061E770E0F0
:101840008E010F5F1F4FC8010E94A910CE010A969A
:101850000E94CF02E82EE981E154E33130F50E2EEB
:10186000000CFF0BEA5CF34F0C94A111760D550CA4
:10187000550C910D550C940D550C550C550C490CEF
:10188000550C550C7F0D8E0D8B0D550C550C550CB4
:10189000880D8A81FF24F394813639F08B8166E0CC
:1018A000F62E8E3611F057E0F52ECE0105960E94E9
:1018B000CF02D82E48E050E068E670E0C8010E94F0
:1018C000A910C8010E94CF02C82ECE0104960E9422
:1018D000CF02B82ECE0107960E94CF02382F86E0A5
:1018E000D8011D928A95E9F72AE0832F622F0E9482
:1018F0008111982F880F890F880F830F8A838B2D72
:101900000E948111982F880F890F880F8B0D8B8370
:101910008C2D0E948111982F880F890F880F8C0DB4
:101920008C838D2D0E948111982F880F890F880F2D
:101930008D0D8E838F2D0E948111982F990F890F05
:10194000880FF80EFF828E2D0E948111982F880F2C
:10195000890F880F8E0D888780911F029091200239
:10196000FC01248135812830310580F0208131E06F
:101970003093560220937802109257021092790207
:1019800021E048E050E0B8010E94320477E0272EC1
:10199000312C198280901F0290902002D40114965D
:1019A0008D919C911597892B09F435C18C9191E00B
:1019B0009093560280937802109257021092790207
:1019C00020E041E050E0B801C4010E9432048823C5
:1019D00009F421C1B12CA12CF4018481958161010C
:1019E000CA18DB088C159D0508F46C01D401EC9035
:1019F0000E9468012B013C0180915002811197C027
:101A0000FC2CB0E2BC1510F460E2F62EE1E0E093AD
:101A1000500221E0C1018C199D09A816B90608F4ED
:101A200020E020934F02FFEFF0934E0210924D0200
:101A30008FEF8F0D80934C0231E030932B02809119
:101A40002B02EE0CE82AE0922B0280912A028130D0
:101A500009F0B4C010922A020E9468012B013C01D7
:101A600080912B028093BB0080915202909153028F
:101A7000A0915402B0915502892B8A2B8B2BA1F097
:101A80000E94680120915202309153024091540209
:101A90005091550264197509860997092617370769
:101AA0004807590708F464C08091BC0083FDD8CF73
:101AB00055EC5093BC000E9468012B013C018091C1
:101AC0005002813009F47EC080914D028F1510F4D0
:101AD000F0904D02ACE2B2E0E3EFF1E080E08F1570
:101AE00009F44BC09D9191938F5FF9CF8B8144E0B6
:101AF000F42E823709F4D9CE38E0F32ED6CE8B817E
:101B000023E0F22E823709F4D0CE95E0F92ECDCE27
:101B100089E0F82ECACEBAE0FB2EC7CEABE0FA2E93
:101B2000C4CEFCE0FF2EC1CEE2E0FE2EBECE809100
:101B3000520290915302A0915402B0915502892B08
:101B40008A2B8B2B09F458CF0E94680120915202F6
:101B50003091530240915402509155026419750915
:101B600086099709261737074807590708F044CF11
:101B7000809151020E942103F12C1092F201F09207
:101B8000F101FC141D0409F046C07801EA0CFB1CAD
:101B90003701C701861997098C159D05A8F5D40151
:101BA00011968D919C91DC01ED91FC910284F3855D
:101BB000E02D0995F70181937F01EBCF65EE6093EE
:101BC000BC0079CF8091520290915302A0915402AF
:101BD000B0915502892B8A2B8B2B09F470CF0E9470
:101BE0006801209152023091530240915402509169
:101BF000550264197509860997092617370748079A
:101C0000590708F05CCFB4CFAC0CBD1CF7E0AF16A1
:101C1000B10408F4E1CE4981BA80AB809D81292FBF
:101C200030E0B4E035952795BA95E1F7822F880F1B
:101C3000880F522F581B852F880F890F9E81292FBF
:101C400030E054E0359527955A95E1F7322F330F60
:101C5000330FD22ED31ADD0CD90EEF8090E0EDE7D2
:101C6000F0E021E04C012D1530F43491830F911DEB
:101C70002F5F3196F8CF2E2D30E0A4E035952795D3
:101C8000AA95E1F7322F330F330F231B220F2E0DAE
:101C900062E06D1520F4322F337009F40196C42EE2
:101CA000E894C7F8E22EF12C97012D5F3F4F36954F
:101CB000279536952795ADE6B1E0EA9EA001EB9E0B
:101CC000500DFA9E500D11244B5F5F4F240F351FAE
:101CD000820F931FB1010E948D112CE0289FB0014B
:101CE000299F700D112460507F4FFB01019000204F
:101CF000E9F73197AF01461B570B83E693E00E944B
:101D0000270780921D0290921E028D2D90E09093E5
:101D10001C0280931B02B7016053784F70931A0224
:101D2000609319028A2D90E054E0959587955A9515
:101D3000E1F7982F990F990F891B880FA80E8A2D0C
:101D400090E090931802809317028B2D90E0E4E0CE
:101D500095958795EA95E1F7982F990F990F891B2B
:101D6000880FB80E8B2D90E0909316028093150289
:101D70008C2D90E0F4E095958795FA95E1F7982FF2
:101D8000990F990F891B880FC80ED12CD09214027D
:101D9000C0921302C8010E94480760911B02709113
:101DA0001C02CE010C960E94480760911D027091A2
:101DB0001E02CE0142960E94480763E673E0CE0100
:101DC00048960E9480076DE871E0CE0148960E9417
:101DD000FE06BE016E5E7F4F0E9414076FE871E041
:101DE0000E94FE06BE01645F7F4F0E9414076FE8E9
:101DF00071E00E94FE06B8010E9414070E947D0651
:101E0000CE0148960E94A206CE0142960E94A206EA
:101E1000CE010C960E94A206C8010E94A206609103
:101E2000130270911402C8010E94480760911502C4
:101E300070911602CE010C960E944807609117021D
:101E400070911802CE0148960E944807BE01685E54
:101E50007F4FCE0142960E94800761E971E0CE017A
:101E600042960E94FE06BE01645F7F4F0E941407E7
:101E700061E971E00E94FE06B8010E9414070E9409
:101E80007D06CE0142960E94A206CE0148960E948F
:101E9000A206CE010C960E94A206C8010E94A206CC
:101EA0000E94750668EE73E080E090E00E948D016C
:101EB0000E94AE0560E080E00E9453066091190226
:101EC00070911A02C8010E94480760911B0270912C
:101ED0001C02CE010C960E94480760911D02709171
:101EE0001E02CE0142960E94480763E673E0CE01CF
:101EF00048960E9480076DE871E0CE0148960E94E6
:101F0000FE06BE016E5E7F4F0E9414076FE871E00F
:101F10000E94FE06BE01645F7F4F0E9414076FE8B7
:101F200071E00E94FE06B8010E941407FC01448182
:101F30005581608171818BE493E00E94C101CE01E3
:101F400048960E94A206CE0142960E94A206CE01A9
:101F50000C960E94A206C8010E94A20661E080E0E1
:101F60000E9453066091130270911402C8010E94EE
:101F700048076091150270911602CE010C960E94DE
:101F800048076091170270911802CE0148960E948E
:101F90004807BE01685E7F4FCE0142960E948007CF
:101FA00061E971E0CE0142960E94FE06BE01645FC7
:101FB0007F4F0E94140761E971E00E94FE06B8019C
:101FC0000E941407DC0114964D915C9115976D9158
:101FD0007C918BE493E00E94C101CE0142960E9465
:101FE000A206CE0148960E94A206CE010C960E943F
:101FF000A206C8010E94A2068091170290911802C1
:10200000059771F58091150290911602CB9741F5D5
:102010008091130290911402CB9711F586E990E01C
:102020000E94B7000E94AE0560E080E00E94530667
:1020300083E991E00E94680661E085E00E94530612
:1020400081EA91E00E94680668E873E180E090E030
:102050000E948D0190E080E00E94B7000E94AE05D2
:1020600080911702909118020B9771F580911502DB
:1020700090911602CB9741F5809113029091140232
:10208000CB9711F586E990E00E94B7000E94AE055B
:1020900060E080E00E94530683E991E00E946806B8
:1020A00061E085E00E94530681EA91E00E946806A3
:1020B00068E873E180E090E00E948D0190E080E0AC
:1020C0000E94B7000E94AE058091170290911802FD
:1020D000419771F58091150290911602CB9741F5C9
:1020E0008091130290911402CB9711F586E990E04C
:1020F0000E94B7000E94AE0560E080E00E94530697
:1021000083E991E00E94680661E085E00E94530641
:1021100081EA91E00E94680668E873E180E090E05F
:102120000E948D0190E080E00E94B7000E94AE0501
:1021300080E090E0892B09F42CCC0E942B028823AC
:1021400009F427CC0E94000024CC83E693E00C9491
:10215000A206FB01DC0102C005900D9241505040E7
:10216000D8F70895BB274A3031F4992322F4BDE211
:10217000909581959F4F0C94BE10BB27FB0155276E
:10218000AA27880F991FAA1FA41710F0A41B8395D4
:102190005051B9F7A05DAA3308F0A95DA19300974B
:1021A00079F7B111B1931192CB010C94D710DC01E6
:1021B000FC01672F71917723E1F7329704C07C917E
:1021C0006D9370836291AE17BF07C8F30895052E13
:1021D00097FB1EF400940E94FE1057FD07D00E944A
:1021E000501107FC03D04EF40C94FE10509540950E
:1021F000309521953F4F4F4F5F4F089590958095B3
:10220000709561957F4F8F4F9F4F08950E94721177
:10221000A59F900DB49F900DA49F800D911D11243A
:102220000895B7FF0C9406110E940611821B930BB0
:1022300008952F923F924F925F926F927F928F926A
:102240009F92AF92BF92CF92DF92EF92FF920F9345
:102250001F93CF93DF93CDB7DEB7CA1BDB0B0FB64F
:10226000F894DEBF0FBECDBF09942A88398848880C
:102270005F846E847D848C849B84AA84B984C884A2
:10228000DF80EE80FD800C811B81AA81B981CE0F99
:10229000D11D0FB6F894DEBF0FBECDBFED0108957E
:1022A000A1E21A2EAA1BBB1BFD010DC0AA1FBB1F5A
:1022B000EE1FFF1FA217B307E407F50720F0A21BCC
:1022C000B30BE40BF50B661F771F881F991F1A9439
:1022D00069F760957095809590959B01AC01BD0163
:1022E000CF010895A29FB001B39FC001A39F700DBD
:1022F000811D1124911DB29F700D811D1124911D0E
:102300000895991B79E004C0991F961708F0961B51
:10231000881F7A95C9F780950895AA1BBB1B51E1C8
:1023200007C0AA1FBB1FA617B70710F0A61BB70B45
:10233000881F991F5A95A9F780959095BC01CD01EA
:102340000895EE0FFF1F0590F491E02D09940F936F
:102350001F93CF93DF938230910510F482E090E0D9
:10236000E0916B03F0916C0330E020E0B0E0A0E07E
:10237000309799F42115310509F44AC0281B390B0F
:1023800024303105D8F58A819B816115710589F169
:10239000FB0193838283FE0111C040815181028140
:1023A000138148175907E0F04817590799F4109717
:1023B00061F012960C93129713961C933296CF01EC
:1023C000DF91CF911F910F91089500936B031093AC
:1023D0006C03F4CF2115310551F04217530738F043
:1023E000A901DB019A01BD01DF01F801C1CFEF01B5
:1023F000F9CF90936C0380936B03CDCFFE01E20F76
:10240000F31F819391932250310939832883D7CFC9
:102410002091690330916A03232B41F420915601E6
:102420003091570130936A0320936903209154013E
:10243000309155012115310541F42DB73EB740913A
:10244000580150915901241B350BE0916903F0911B
:102450006A03E217F307A0F42E1B3F0B2817390776
:1024600078F0AC014E5F5F4F2417350748F04E0FF0
:102470005F1F50936A0340936903819391939FCFA9
:10248000F0E0E0E09CCFCF93DF930097E9F0FC0110
:10249000329713821282A0916B03B0916C03ED010D
:1024A00030E020E01097A1F420813181820F931F4A
:1024B0002091690330916A032817390709F061C038
:1024C000F0936A03E0936903DF91CF910895EA01E5
:1024D000CE17DF07E8F54A815B819E014115510562
:1024E000B1F7E901FB83EA8349915991C40FD51FE4
:1024F000EC17FD0761F4808191810296840F951F8E
:10250000E90199838883828193819B838A83F0E0A8
:10251000E0E012968D919C9113970097B9F52D915B
:102520003C911197CD010296820F931F2091690370
:1025300030916A032817390739F6309751F5109210
:102540006C0310926B03B0936A03A0936903BCCF32
:10255000D383C28340815181840F951FC817D90747
:1025600061F44E5F5F4F88819981480F591F5183F5
:1025700040838A819B81938382832115310509F0F1
:10258000B0CFF0936C03E0936B039ECFFD01DC01B1
:10259000C0CF13821282D7CFB0E0A0E0E2EDF2E12B
:1025A0000C941B118C01009751F4CB010E94A711D0
:1025B0008C01C801CDB7DEB7E0E10C943711FC0106
:1025C000E60FF71F9C0122503109E217F30708F4C8
:1025D0009DC0D901CD91DC911197C617D70798F00E
:1025E000C530D10530F3CE0104978617970708F35D
:1025F000C61BD70B2297C193D1936D937C93CF01C8
:102600000E944312D6CF5B01AC1ABD0A4C018C0E5E
:102610009D1EA0916B03B0916C03512C412CF12CA9
:10262000E12C109731F58091690390916A03881528
:10263000990509F05CC04616570608F058C080910D
:10264000540190915501009741F48DB79EB7409188
:10265000580150915901841B950BE817F90708F0B0
:1026600055C0F0936A03E0936903F90171836083B5
:10267000A0CF8D919C91119712966C901297139602
:102680007C901397A815B90559F56C0142E0C40E6A
:10269000D11CCA14DB0420F1AC014A195B09DA0130
:1026A0001296159780F06282738251834083D9011C
:1026B0006D937C93E114F10471F0D7011396FC93B0
:1026C000EE93129776CF22968C0F9D1FF90191837E
:1026D0008083F301EFCFF0936C03E0936B0369CF3A
:1026E0004816590608F42C017D01D3019ACFCB017D
:1026F0000E94A7117C01009749F0AE01B8010E9429
:102700008913C8010E944312870153CF10E000E0F3
:1027100050CFFB01DC0102C001900D9241505040AE
:10272000D8F70895FB01DC0101900D920020E1F73C
:10273000089510E0CDE6D0E004C0FE010E94A11192
:102740002196CE36D107C9F7F894FFCF4D696E6751
:10275000677500000000000053656E696E000000A0
:102760000000000053656C61736100000000000010
:102770005261627500000000000000004B616D694D
:1027800073000000000000004A756D6174000000D5
:10279000000000005361627475000000000000003A
:1027A00000006D038000000000006102C101EE0125
:1027B000AE021F02FD01110200000000E004B3049C
:1027C0000F058904AC0499048A0400000000620625
:1027D000C1010F05CE020D0A0020002F003A005360
:1027E000656C616D6174204D616B616E004D656F4C
:0427F0006E67000010
:107E0000112484B714BE81FFF0D085E080938100F7
:107E100082E08093C00088E18093C10086E0809377
:107E2000C20080E18093C4008EE0C9D0259A86E02C
:107E300020E33CEF91E0309385002093840096BBD3
:107E4000B09BFECF1D9AA8958150A9F7CC24DD24C4
:107E500088248394B5E0AB2EA1E19A2EF3E0BF2EE7
:107E6000A2D0813461F49FD0082FAFD0023811F036
:107E7000013811F484E001C083E08DD089C08234E0
:107E800011F484E103C0853419F485E0A6D080C0E4
:107E9000853579F488D0E82EFF2485D0082F10E0AE
:107EA000102F00270E291F29000F111F8ED06801E7
:107EB0006FC0863521F484E090D080E0DECF843638
:107EC00009F040C070D06FD0082F6DD080E0C81688
:107ED00080E7D80618F4F601B7BEE895C0E0D1E017
:107EE00062D089930C17E1F7F0E0CF16F0E7DF06D8
:107EF00018F0F601B7BEE89568D007B600FCFDCFD4
:107F0000A601A0E0B1E02C9130E011968C91119780
:107F100090E0982F8827822B932B1296FA010C0160
:107F200087BEE89511244E5F5F4FF1E0A038BF0790
:107F300051F7F601A7BEE89507B600FCFDCF97BE46
:107F4000E89526C08437B1F42ED02DD0F82E2BD052
:107F50003CD0F601EF2C8F010F5F1F4F84911BD097
:107F6000EA94F801C1F70894C11CD11CFA94CF0C13
:107F7000D11C0EC0853739F428D08EE10CD085E9AC
:107F80000AD08FE07ACF813511F488E018D01DD067
:107F900080E101D065CF982F8091C00085FFFCCF94
:107FA0009093C60008958091C00087FFFCCF809118
:107FB000C00084FD01C0A8958091C6000895E0E648
:107FC000F0E098E1908380830895EDDF803219F02E
:107FD00088E0F5DFFFCF84E1DECF1F93182FE3DFCA
:107FE0001150E9F7F2DF1F91089580E0E8DFEE27F6
:047FF000FF270994CA
:027FFE00040479
:00000001FF
